:020000040000FA
:1000000033EF36F0C96E120034EF32F0D4EC17F053
:1000100053EC16F0FDD71200A9EF34F0D9CFE5FF6D
:10002000E1CFD9FF00C0E5FF01C0E5FF02C0E5FF59
:1000300003C0E5FF04C0E5FF05C0E5FF06C0E5FF1E
:1000400007C0E5FF08C0E5FF09C0E5FF0AC0E5FFFE
:100050000BC0E5FF0CC0E5FF0DC0E5FF0EC0E5FFDE
:100060000FC0E5FF10C0E5FF11C0E5FF12C0E5FFBE
:1000700013C0E5FF14C0E5FF15C0E5FF16C0E5FF9E
:1000800017C0E5FF18C0E5FF19C0E5FF1AC0E5FF7E
:100090001BC0E5FF1CC0E5FF1DC0E5FF1EC0E5FF5E
:1000A0001FC0E5FF20C0E5FF21C0E5FF22C0E5FF3E
:1000B00023C0E5FF24C0E5FF25C0E5FF020EDBCF2E
:1000C00000F0030EDBCF01F0040EDBCF02F0025094
:1000D000086E0150076E0050066EE56A100EE56E60
:1000E0000850E56E0750E56E0650E56E800EE56E31
:1000F0000A0EE56EC00EE56E35EC28F0080EE1261E
:10010000C8CA03F0C9CA04F0CACA05F0CBCA06F0CF
:1001100003C007F004C008F005C009F006C00AF0EB
:10012000D8800AAED8900AE30A1E091E081E076C82
:1001300005E1082A03E1092AD8B40A2AC0CA0BF04B
:10014000C1CA0CF0E86A0A01C1BFFF0E0D6E0E6E47
:10015000C3510F6EC451106EC551116E126A11BE9B
:1001600012680F500B5C0F6E10500C58106E11502F
:100170000D58116E12500E58126E800F800F08E14C
:10018000000E115C05E1000E105C02E1010E0F5C37
:1001900037E3D88012AED89033E30A340A30166EB3
:1001A0000930156E0830146E0730136ECECA17F082
:1001B000CFCA18F0E86A0A01CFBFFF0E196E800F90
:1001C000F36E1650800FF35C08E11550195C05E1E1
:1001D0001450185C02E11350175C12E30D50166EB8
:1001E0000C50156E0B500A01C26BC36F1550C46FD3
:1001F0001650C56FC86BC96BCA6BCB6B49EF04F067
:100200000850076E0950086E0A500A6A0834083010
:100210000A6E0730096EE86A0ABEFF0E0B6E0C6E9E
:1002200007C00DF008C00EF0E86A08BEFF0E136E9E
:10023000E56E1350E56E0E50E56E0D50E56E0C50F8
:10024000E56E0B50E56E0A50E56E0950E56E9FECC9
:1002500020F0096EF3CF0AF0F4CF0BF0E9CF0CF0E9
:10026000080EE126CECA0DF0CFCA0EF0E86A0A01E8
:10027000CFBFFF0E136E146EE56E1350E56E0E5079
:10028000E56E0D50E56E0C50E56E0B50E56E0A50B4
:10029000E56E0950E56E87EC23F0096EF3CF0AF0A6
:1002A000080EE126C6CA0BF0C7CA0CF0E86A0A01BC
:1002B000C7BFFF0E156E1A6E0C50196E0B50186EDC
:1002C000176AD88006AED890D8B057D109C00BF0C5
:1002D0000AC00CF0E86A0ABEFF0E156E800FF36EBE
:1002E0001250800FF35C08E11150155C05E11050CD
:1002F0000C5C02E10F500B5CD8B017D10650800F98
:10030000F36E1A50800FF35C08E11950055C05E1AB
:100310001850045C02E11750035CD8B0DFD0CCCA9F
:100320000BF0CDCA0CF0E86A0A01CDBFFF0E156EC6
:10033000166E03500B2604500C2205501522065051
:1003400016220B500A01C86F0C50C96F1550CA6FA6
:100350001650CB6FCECA0BF0CFCA0CF0CCCA15F03A
:10036000CDCA16F00C50800FF36E1650800FF35C60
:1003700002E115500B5CD8B095D0C8CA1BF0C9CAB1
:100380001CF0CACA1DF0CBCA1EF01C501F6E1D50B7
:10039000206E1E50226A1F50076E2050086E0834CF
:1003A0000830206E07301F6EE86A20BEFF0E216EF7
:1003B000226E07C023F008C024F0E86A08BEFF0ED2
:1003C000256EE56E2550E56E2450E56E2350E56EF2
:1003D0002250E56E2150E56E2050E56E1F50E56E0F
:1003E0009FEC20F01F6EF3CF20F0F4CF21F0E9CF87
:1003F00022F0080EE1260BC023F00CC024F0E86ABE
:100400000CBEFF0E256EE56E2550E56E2450E56EA0
:100410002350E56E2250E56E2150E56E2050E56ECA
:100420001F50E56E87EC23F01F6EF3CF20F0080E0F
:10043000E1261F50096E20500A6E09C01FF00AC045
:1004400020F0E86A0ABEFF0E216E226E1250800F65
:10045000F36E2250800FF35C08E12150115C05E13E
:100460002050105C02E11F500F5C1CE20B50155C29
:100470000B6E0C5016580C6EE86A0CBEFF0E156E13
:10048000166E0B501B5E0C501C5A15501D5A165000
:100490001E5A1B500A01C86F1C50C96F1D50CA6FED
:1004A0001E50CB6F1A50800FF36E0A01CB51800F94
:1004B000F35C08E1CA51195C05E1C951185C02E11D
:1004C000C851175CD8B0CBD117500A01C86F18506B
:1004D000C96F1950CA6F1A50CB6FC1D11A50800F13
:1004E000F36E0650800FF35C08E10550195C05E1DE
:1004F0000450185C02E10350175CD8B0B0D10D5025
:10050000035C0B6E0E5004580C6E13500558156E9C
:1005100014500658166E0B500A01C86F0C50C96F64
:100520001550CA6F1650CB6F9AD1CCCA0BF0CDCAFA
:100530000CF0E86A0A01CDBFFF0E156E166E0D5065
:100540000B260E500C2213501522145016220B505D
:10055000035C0B6E0C5004580C6E15500558156E4C
:1005600016500658166E0B500A01C86F0C50C96F12
:100570001550CA6F1650CB6F72D10A1E096CD8B4D1
:100580000A2A09C00BF00AC00CF0E86A0ABEFF0E86
:10059000156E166E1250800FF36E1650800FF35CBE
:1005A00008E11550115C05E10C50105C02E10B50A4
:1005B0000F5CD8B031D11A1C166E191C156E181CA0
:1005C0000C6E171C0B6E0B2A04E10C2A02E1154A73
:1005D000162A1650800FF36E0650800FF35C08E168
:1005E0000550155C05E104500C5C02E103500B5C06
:1005F000D8B0EBD0CCCA17F0CDCA18F0E86A0A011F
:10060000CDBFFF0E196E1A6E1750035C176E18508F
:100610000458186E19500558196E1A5006581A6E5B
:1006200017500A01C86F1850C96F1950CA6F1A5075
:10063000CB6FCECA17F0CFCA18F0CCCA19F0CDCA0A
:100640001AF01850800FF36E1A50800FF35C02E11D
:100650001950175CD8B09DD0C8CA1BF0C9CA1CF08D
:10066000CACA1DF0CBCA1EF01C501F6E1D50206E52
:100670001E50216E226A21BE2268221E211E201ECB
:100680001F6C05E1202A03E1212AD8B4222A1F5039
:10069000076E2050086E08340830206E07301F6E39
:1006A000E86A20BEFF0E216E226EE86A08BEFF0EC9
:1006B000236EE56E2350E56E0850E56E0750E56E3B
:1006C0002250E56E2150E56E2050E56E1F50E56E1C
:1006D0009FEC20F0076EF3CF08F0F4CF1FF0E9CFC6
:1006E00020F0080EE12617C021F018C022F0E86AB9
:1006F00018BEFF0E236EE56E2350E56E2250E56EA8
:100700002150E56E2050E56E1F50E56E0850E56EF5
:100710000750E56E87EC23F0076EF3CF08F0080E64
:10072000E126081E076C02E1082A00E10750096E65
:1007300008500A6EE86A0ABEFF0E076E800FF36E5D
:100740001250800FF35C08E11150075C05E1105076
:100750000A5C02E10F50095C1CE21750195C176E2D
:1007600018501A58186EE86A18BEFF0E076E086E09
:1007700017501B2618501C2207501D2208501E22FD
:100780001B500A01C86F1C50C96F1D50CA6F1E5004
:10079000CB6F0A01CB51800FF36E1650800FF35CC4
:1007A00008E11550CA5D05E10C50C95D02E10B502E
:1007B000C85DD8B054D00B500A01C86F0C50C96F37
:1007C0001550CA6F1650CB6F4AD00650800FF36E8B
:1007D0001650800FF35C08E11550055C05E10C50E4
:1007E000045C02E10B50035CD8B039D00D500324F7
:1007F000076E0E500420086E13500520096E145029
:1008000006200A6E07500A01C86F0850C96F0950C8
:10081000CA6F0A50CB6F23D0CCCA07F0CDCA08F0FC
:10082000E86A0A01CDBFFF0E096E0A6E07500D2659
:1008300008500E22095013220A5014220D5003268C
:100840000E500422135005221450062203500A01B0
:10085000C86F0450C96F0550CA6F0650CB6F0A01AC
:10086000C951036ECA51046ECB51056E066A05BEAE
:100870000668C2510326C3510422C4510522C55142
:1008800006220350C26F0450C36F0550C46F065058
:10089000C56FE56A100EE56E800EE56E0A0EE56E18
:1008A000C00EE56E0250E56E0150E56E0050E56E3B
:1008B00035EC28F0080EE126E4CF25F0E4CF24F053
:1008C000E4CF23F0E4CF22F0E4CF21F0E4CF20F016
:1008D000E4CF1FF0E4CF1EF0E4CF1DF0E4CF1CF016
:1008E000E4CF1BF0E4CF1AF0E4CF19F0E4CF18F016
:1008F000E4CF17F0E4CF16F0E4CF15F0E4CF14F016
:10090000E4CF13F0E4CF12F0E4CF11F0E4CF10F015
:10091000E4CF0FF0E4CF0EF0E4CF0DF0E4CF0CF015
:10092000E4CF0BF0E4CF0AF0E4CF09F0E4CF08F015
:10093000E4CF07F0E4CF06F0E4CF05F0E4CF04F015
:10094000E4CF03F0E4CF02F0E4CF01F0E4CF00F015
:10095000E4CFD9FF1200D9CFE5FFE1CFD9FF00C026
:10096000E5FF01C0E5FF02C0E5FF03C0E5FF04C0ED
:10097000E5FF05C0E5FF06C0E5FF07C0E5FF08C0CD
:10098000E5FF09C0E5FF0AC0E5FF0BC0E5FF0CC0AD
:10099000E5FF0DC0E5FF0EC0E5FF0FC0E5FF10C08D
:1009A000E5FF11C0E5FF12C0E5FF13C0E5FF14C06D
:1009B000E5FF15C0E5FF16C0E5FF17C0E5FF18C04D
:1009C000E5FF19C0E5FF1AC0E5FF1BC0E5FF1CC02D
:1009D000E5FF1DC0E5FF1EC0E5FF020EDBCF00F006
:1009E000030EDBCF01F0040EDBCF02F0050EDBCFF0
:1009F00003F0060EDBCF04F0070EDBCF05F0080E88
:100A0000DBCF06F0090EDBCF07F00A0EDBCF08F0D4
:100A1000096A0A6A02C00DF00D50800A0DE1025009
:100A200001011D6F01501C6F00501B6F010E016E04
:100A30001B0E006E800E026E03C0E9FF04C0F3FFC0
:100A400005506CEC36F00B6E0B50D8B499EF08F0F3
:100A50000B50250A02E080EF08F00C6A0D6A0E6A5E
:100A60000F6A106A0A0E116E126A136A146A200E57
:100A7000156E1668176A2B0E186E032A02E3044AD5
:100A8000052A03C0E9FF04C0F3FF05506CEC36F003
:100A9000196E250A13E11950E56E0250E56E0150FA
:100AA000E56E0050E56EACEC27F0040EE126094A35
:100AB0000A2A032A02E3044A052ABED71950300A3B
:100AC00006E1300E156E032A02E3044A052A03C02C
:100AD000E9FF04C0F3FF05506CEC36F02D0A06E187
:100AE000010E146E032A02E3044A052A03C0E9FF3B
:100AF00004C0F3FF05506CEC36F0200A08E1010E4B
:100B0000176E200E186E032A02E3044A052A03C05A
:100B1000E9FF04C0F3FF05506CEC36F02B0A06E148
:100B2000010E176E032A02E3044A052A03C0E9FFF7
:100B300004C0F3FF05506CEC36F0196E800F4F0FB8
:100B40002DE31950800F460F29E203C019F004C0AD
:100B50001AF005C01BF019C0E9FF1AC0F3FF1B50C3
:100B60006CEC36F01C6E800F500F12E31C50800F9F
:100B7000460F0EE213500A0DF3CF1DF01D501C2638
:100B8000D00E1C24136E192A02E31A4A1B2AE3D73B
:100B900019C003F01AC004F01BC005F003C0E9FF40
:100BA00004C0F3FF05506CEC36F02E0A2EE1032A48
:100BB00002E3044A052A166A03C019F004C01AF0B9
:100BC00005C01BF019C0E9FF1AC0F3FF1B506CEC05
:100BD00036F01C6E800F500F12E31C50800F460F32
:100BE0000EE216500A0DF3CF1DF01D501C26D00E3C
:100BF0001C24166E192A02E31A4A1B2AE3D719C0CD
:100C000003F01AC004F01BC005F003C0E9FF04C0E4
:100C1000F3FF05506CEC36F0196E6C0A07E1010E1B
:100C20000C6E032A02E3044A052A09D01950680A07
:100C300006E1010E0E6E032A02E3044A052A03C0F0
:100C4000E9FF04C0F3FF05506CEC36F0750A06E1CD
:100C5000010E106E032A02E3044A052A03C0E9FFCD
:100C600004C0F3FF05506CEC36F0196E730A05E111
:100C7000010E0D6E200E156E3FD01950780A03E15B
:100C8000100E116E39D01950580A05E1100E116E70
:100C9000010E126E31D01950630A02E1116A2CD094
:100CA00019506F0A03E1080E116E26D01950660A1A
:100CB00003E1010E0F6E20D01950640A1DE0195097
:100CC000690A1AE0105005E0FF0E032604220522EF
:100CD00013D01950E56E0250E56E0150E56E0050DC
:100CE000E56EACEC27F0040EE126094A0A2A032A35
:100CF00002E3044A052AA0D60D5021E00650030F56
:100D00000D6E000E0720196E000E08201A6E0DC021
:100D100006F019C007F01AC008F0FD0E0D26FF0EF0
:100D200019221A220DC0E9FF19C0F3FF1A5048EC2E
:100D300035F00D6EF3CF19F0F4CF1AF032D10F5019
:100D4000D8B43ED00650040F0F6E000E07201B6E65
:100D5000000E08201C6E0FC006F01BC007F01CC060
:100D600008F0FC0E0F26FF0E1B221C220FC0E9FF0D
:100D70001BC0F3FF1C50CEEC34F00F6EF3CF1BF012
:100D8000F4CF1CF0E9CF1DF0040E196E000E0D6EAD
:100D9000800E1A6E1650E56E240EE56E040EE56E9A
:100DA000000EE56E1D50E56E1C50E56E1B50E56EA5
:100DB0000F50E56E8DEC1FF0080EE1261668F1D09D
:100DC00016680C5023E00650040F0C6E000E07202E
:100DD0000F6E000E08201B6E0CC006F00FC007F04F
:100DE0001BC008F0FC0E0C26FF0E0F221B220CC0AD
:100DF000E9FF0FC0F3FF1B50CEEC34F00C6EF3CFC5
:100E00000FF0F4CF1BF0E9CF1CF06AD00E5032E0A7
:100E10000650020F0E6E000E07201D6E000E0820F9
:100E20001E6E0EC006F01DC007F01EC008F0FE0EBC
:100E30000E26FF0E1D221E220EC0E9FF1DC0F3FF6D
:100E40001E5007EC36F00E6E0EC00CF0E86A0EBEB7
:100E5000FF0E0F6E1B6E1C6E11500A0A03E110503C
:100E6000D8B43ED00C500E6E0EC00CF00F6A1B6A48
:100E70001C6A36D00650020F0E6E000E07201D6E43
:100E8000000E08201E6E0EC006F01DC007F01EC02A
:100E900008F0FE0E0E26FF0E1D221E220EC0E9FFD8
:100EA0001DC0F3FF1E5007EC36F00E6EF3CF1DF0A1
:100EB0000EC00CF01DC00FF0E86A1DBEFF0E1B6EC9
:100EC0001C6E11500A0A02E110500AE00C500E6E1E
:100ED0000F501D6E0EC00CF01DC00FF01B6A1C6A77
:100EE000040E196E010E0D6E800E1A6E1150D8B4DC
:100EF00040D0105013E01150E56E040EE56E010E67
:100F0000E56E1C50E56E1B50E56E0F50E56E0C5003
:100F1000E56EABEC22F0070EE12612D01150E56E23
:100F2000040EE56E010EE56E1C50E56E1B50E56E7D
:100F30000F50E56E0C50E56E4BEC2CF0070EE126E1
:100F400017502FE00DC0E9FF19C0F3FF1A506CECE9
:100F500036F02D0A26E0FF0E0D2619221A2218C09F
:100F6000E5FF0DC0E9FF19C0F3FF1A5005EC37F09B
:100F700018D00CC0E5FF0DC0E9FF19C0F3FF1A50EF
:100F800005EC37F00D50010F0C6E000E19200E6E9F
:100F9000000E1A20E56A0CC0E9FF0EC0F3FF05EC55
:100FA00037F00DC00CF019C00EF01AC00FF013C0CE
:100FB00010F0105010E00CC0E9FF0EC0F3FF0F500E
:100FC0006CEC36F0176E175006E00C2A02E30E4A5E
:100FD0000F2A1006EED710C013F014501EE109C0FE
:100FE0000CF00AC00EF010C00FF00F5010E01550BA
:100FF000E56E0250E56E0150E56E0050E56EACEC1A
:1010000027F0040EE1260C4A0E2A0F06EED70CC07C
:1010100009F00EC00AF00FC013F016C00CF00DC09E
:101020000DF019C00EF01AC00FF009C010F00AC080
:1010300015F00DC0E9FF0EC0F3FF0F506CEC36F059
:10104000166E1650D8B43ED00CC016F0176A161E95
:10105000171E1650171005E00CC016F00C0616509F
:1010600031E00DC0E9FF0EC0F3FF0F506CEC36F01D
:10107000116E125010E01150E56EC4EC35F0166E92
:10108000E652165004E01150166E169A02D011C0A6
:1010900016F016C011F01150E56E0250E56E0150C9
:1010A000E56E0050E56EACEC27F0040EE1260D2A4B
:1010B00002E30E4A0F2A104A152A1350D8B4B9D7A2
:1010C0001306B7D710C009F015C00AF014502BE072
:1010D00010C00CF015C00DF013C00EF00E501FE044
:1010E000200EE56E0250E56E0150E56E0050E56E93
:1010F000ACEC27F0040EE1260C4A0D2A0E06EED7C2
:101100000B50E56E0250E56E0150E56E0050E56E45
:10111000ACEC27F0040EE126094A0A2A04D00CC0E0
:1011200009F00DC00AF0032A02E3044A052A1CEF65
:1011300005F00AC0F3FF0950E4CF1EF0E4CF1DF024
:10114000E4CF1CF0E4CF1BF0E4CF1AF0E4CF19F0A9
:10115000E4CF18F0E4CF17F0E4CF16F0E4CF15F0A9
:10116000E4CF14F0E4CF13F0E4CF12F0E4CF11F0A9
:10117000E4CF10F0E4CF0FF0E4CF0EF0E4CF0DF0A9
:10118000E4CF0CF0E4CF0BF0E4CF0AF0E4CF09F0A9
:10119000E4CF08F0E4CF07F0E4CF06F0E4CF05F0A9
:1011A000E4CF04F0E4CF03F0E4CF02F0E4CF01F0A9
:1011B000E4CF00F0E4CFD9FF1200D9CFE5FFE1CFB3
:1011C000D9FF00C0E5FF01C0E5FF02C0E5FF03C095
:1011D000E5FF04C0E5FF05C0E5FF06C0E5FF07C069
:1011E000E5FF08C0E5FF09C0E5FF0AC0E5FF0BC049
:1011F000E5FF0CC0E5FF0DC0E5FF020EDBCF00F000
:10120000030EDBCF01F0040EDBCF02F00050090F1C
:10121000066E000E0120076E000E0220086E0B6E97
:1012200007500A6E0650096EE56A0D0EE56E0B500A
:10123000E56E0A50E56E0950E56E800EE56E0A0E09
:10124000E56ED00EE56E35EC28F0080EE12600C004
:1012500009F001C00AF002C00BF0E56AE56E0B5020
:10126000E56E0A50E56E0950E56E800EE56E040EDF
:10127000E56E810EE56E35EC28F0080EE12681C49E
:1012800003F00350010A04E00350030A01E01FD1F8
:101290000A01D8510A01E55D036E0A01D9510A011C
:1012A000E659046E0A01DA510A01E7590A01DB51D5
:1012B0000A01E85903500101226F0450236F0A010B
:1012C000E5510A01D86F0A01E6510A01D96F0A01F6
:1012D000E7510A01DA6F0A01E8510A01DB6F0101E7
:1012E00022512311D8A47FD093EC33F0036EF3CFB7
:1012F00004F0F4CF05F0E9CF09F00A01DD510A6EE0
:10130000DE510B6EDF510C6EE0510D6E0A50035E24
:101310000B50045A0C50055A0D50095A0350040141
:10132000FC6F0450FD6F0550FE6F7F0E0914FF6FB8
:101330000A01DCB125D00401FD35FF31046EFE3118
:10134000036E043404320332000E04BEFF0E096E35
:10135000056E86C40AF00B6A0C6A0D6A0D50800F88
:10136000F36E0950800FF35C08E105500C5C05E159
:1013700004500B5C02E103500A5C02E20A01DC81CA
:101380000A01DCB14AD0D4CA03F0D5CA04F0D6CAE7
:1013900005F0D7CA09F00401FF51800FF36E095020
:1013A000800FF35C08E10550FE5D05E10450FD5D32
:1013B00002E10350FC5D08E203C0FCF404C0FDF44C
:1013C00005C0FEF409C0FFF40A01E9A303D0010E31
:1013D000036E01D0036803C022F10101236B03AE49
:1013E00001D023691AD00A01DC91E1CAFCF4E2CAF7
:1013F000FDF4E3CAFEF4E4CAFFF40401FC510A015F
:10140000D46F0401FD510A01D56F0401FE510A0198
:10141000D66F0401FF510A01D76F0401FF51800FFD
:10142000800F08E1000EFE5D05E1000EFD5D02E1AA
:10143000010EFC5D06E20A01EA6BEB6BEC6BED6BF7
:1014400046D00401FC51036EFD51046EFE51056E41
:10145000FF51E56E0550E56E0450E56E0350E56EF4
:10146000010EE56E000EE56AE56AE56A97EC26F086
:10147000036EF3CF04F0F4CF05F0E9CF09F0080EC6
:10148000E12622C10AF023C10BF0E86A010123BF63
:10149000FF0E0C6E0D6E0950E56E0550E56E0450A2
:1014A000E56E0350E56E0D50E56E0C50E56E0B5089
:1014B000E56E0A50E56E9FEC20F00A01EA6FF3CF6B
:1014C000EBFAF4CFECFAE9CFEDFA080EE126020EC2
:1014D0000401815DD8A036D10A01E9A133D10050C1
:1014E000230F036E000E0120046E000E0220E56E35
:1014F0000450E56E0350E56E0EEC00F0030EE1269D
:101500000050230F036E000E0120046E000E022017
:10151000056E020E0326000E0422052203C0E9FF19
:1015200004C0F3FF0550CEEC34F0F3CF04F0F4CF59
:1015300005F0E9CF09F00450036E0550046E095020
:10154000056E096A05BE09680A01E551035C0A01D6
:10155000EE6F0A01E65104580A01EF6F0A01E751E4
:1015600005580A01F06F0A01E85109580A01F16FA4
:10157000D880F1AFD89022E30401831D046E821D50
:10158000036E034A042AE86A04BEFF0E056E096E64
:101590000A01F151800FF36E0950800FF35C08E1EE
:1015A0000550F05D05E10450EF5D02E10350EE5D92
:1015B00005E30A01EE6BEF6BF06BF16B0A01F15181
:1015C000800F800F08E1000EF05D05E1000EEF5D79
:1015D00002E1010EEE5D1EE382C403F083C404F059
:1015E000E86A040183BFFF0E056E800FF36E0A01E7
:1015F000F151800FF35C08E1F051055C05E1EF511A
:10160000045C02E1EE51035C05E30A01EE6BEF6B53
:10161000F06BF16B0401875109E0E86CD8900A0186
:10162000EE37EF37F037F137010FF9E30A01F151E7
:10163000800F800F08E1000EF05D05E1800EEF5D88
:1016400002E1000EEE5D07E30A01EE697F0EEF6F27
:10165000F06BF16B14D00A01F151800F810F08E19A
:10166000FF0EF05D05E1800EEF5D02E1000EEE5D24
:1016700006E20A01EE6B800EEF6FF069F16900502F
:10168000330F036E000E0120046E000E0220056E63
:101690000A01EE51096EEF51E56E0950E56E0550F5
:1016A000E56E0450E56E0350E56E30EC12F0050E69
:1016B000E12604018151030A23E10050330F036E38
:1016C000000E0120046E000E0220056E0B0E032694
:1016D000000E0422052203C0E9FF04C0F3FF0550F9
:1016E000CEEC34F0F3CF04F0F4CF05F00450036EE9
:1016F0000550046E03500A01D06F0450D16F22D000
:101700000050330F036E000E0120046E000E022005
:10171000056E0B0E0326000E0422052203C0E9FF0E
:1017200004C0F3FF0550CEEC34F0F3CF04F0F4CF57
:1017300005F00450036E0550046E03500A01D26F89
:101740000450D36F81C403F00350010A04E0035036
:10175000030A01E07DD0D0CA03F0D1CA04F0E86AE0
:101760000A01D1BFFF0E056E096E0A01EA51035C42
:101770000A01EE6F0A01EB5104580A01EF6F0A01EA
:10178000EC5105580A01F06F0A01ED5109580A01A0
:10179000F16F800F800F08E1000EF05D05E1800E13
:1017A000EF5D02E1000EEE5D07E30A01EE697F0ED8
:1017B000EF6FF06BF16B14D00A01F151800F810FC4
:1017C00008E1FF0EF05D05E1800EEF5D02E1000E25
:1017D000EE5D06E20A01EE6B800EEF6FF069F169D3
:1017E0000050440F036E000E0120046E000E022014
:1017F000056E0A01EE51096EEF51E56E0950E56E76
:101800000550E56E0450E56E0350E56E30EC12F0C5
:10181000050EE126440E0026000E012202220B0EC8
:101820000026000E0122022200C0E9FF01C0F3FFE2
:101830000250CEEC34F0F3CF01F0F4CF02F00150BF
:10184000006E0250016E00500A01D26F0150D36F3A
:101850000850086EE56A0D0EE56E800EE56E0A0E04
:10186000E56ED00EE56E0850E56E0750E56E065049
:10187000E56E35EC28F0080EE126E4CF0DF0E4CF5C
:101880000CF0E4CF0BF0E4CF0AF0E4CF09F0E4CFA2
:1018900008F0E4CF07F0E4CF06F0E4CF05F0E4CFA2
:1018A00004F0E4CF03F0E4CF02F0E4CF01F0E4CFA2
:1018B00000F0E4CFD9FF120025642025640A00005F
:1018C00005C0E5FF06C0E5FF07C0E5FF08C0E5FF6E
:1018D00009C0E5FF0AC0E5FF0BC0E5FF0CC0E5FF4E
:1018E0000DC0E5FF0EC0E5FF0FC0E5FF10C0E5FF2E
:1018F00011C0E5FF12C0E5FF13C0E5FF14C0E5FF0E
:1019000015C0E5FF16C0E5FF17C0E5FF18C0E5FFED
:1019100019C0E5FF1AC0E5FF1BC0E5FF1CC0E5FFCD
:101920001DC0E5FF000E00B0050F066AF60F02E3CA
:10193000062AFCD70A0F056E042E03D0FB0F01E325
:10194000062A065000B0020F00B2050F076AF60F14
:1019500002E3072AFCD70A0F066E042E03D0FB0F02
:1019600001E3072A075000B0060F00B2020F00B4CF
:10197000050F086AF60F02E3082AFCD70A0F076E64
:10198000042E03D0FB0F01E3082A085000B2010F18
:1019900000B4020F00B6050F096AF60F02E3092A28
:1019A000FCD70A0F086E042E03D0FB0F01E3092AAF
:1019B000095000B0090F00B2080F00B4060F00B6BE
:1019C000020F00B8050F0A6AF60F02E30A2AFCD7D5
:1019D0000A0F096E042E03D0FB0F01E30A2A0A50F6
:1019E00000B0030F00B2070F00B4050F00B6010FDF
:1019F00000B8020F00BA050F0B6AF60F02E30B2ABC
:101A0000FCD70A0F0A6E042E03D0FB0F01E30B2A4A
:101A10000B5000B0050F00B4010F00B6030F00B863
:101A2000060F00BA020F00BC050F0C6AF60F02E3A6
:101A30000C2AFCD70A0F0B6E042E03D0FB0F01E318
:101A40000C2A0C5000B0070F00B2050F00BA010FAE
:101A500000BC020F00BE050F0D6AF60F02E30D2A4F
:101A6000FCD70A0F0C6E042E03D0FB0F01E30D2AE6
:101A70000D5000B0070F00B2050F00B4010F00B603
:101A8000020F00B8040F00BA080F00BC060F00BE1A
:101A9000020F01B0050F0E6AF60F02E30E2AFCD703
:101AA0000A0F0D6E042E03D0FB0F01E30E2A0E5019
:101AB00000B0040F00B2090F00B4090F00B6080F00
:101AC00000B8060F00BA020F00BC050F00BE010FE0
:101AD00001B0020F01B2050F0F6AF60F02E30F2AE1
:101AE000FCD70A0F0E6E042E03D0FB0F01E30F2A62
:101AF0000F5000B0040F00B2080F00B4070F00B67B
:101B0000050F00B8010F00BA030F00BC060F00BE9E
:101B1000030F01B0060F01B2020F01B4050F106AE6
:101B2000F60F02E3102AFCD70A0F0F6E042E03D023
:101B3000FB0F01E3102A105000B0060F00B2020F95
:101B400000B4050F00B6010F00B8030F00BA060F6E
:101B500000BC020F00BE050F01B2010F01B4020F5D
:101B600001B6050F116AF60F02E3112AFCD70A0F1E
:101B7000106E042E03D0FB0F01E3112A115000B0A8
:101B8000040F00B2090F00B4080F00B6070F00B829
:101B9000040F00BA080F00BC070F00BE040F01B00D
:101BA000090F01B2080F01B4060F01B6020F01B808
:101BB000050F126AF60F02E3122AFCD70A0F116E04
:101BC000042E03D0FB0F01E3122A125000B4010FC0
:101BD00000B6030F00B8070F00BA040F00BC090FCE
:101BE00000BE090F01B0080F01B2070F01B4050FC5
:101BF00001B6010F01B8020F01BA050F136AF60F03
:101C000002E3132AFCD70A0F126E042E03D0FB0F37
:101C100001E3132A135000B0060F00B2020F00B404
:101C2000040F00B6080F00B8060F00BA030F00BC7F
:101C3000060F00BE030F01B0070F01B2050F01B47C
:101C4000010F01B6030F01B8060F01BA020F01BC64
:101C5000050F146AF60F02E3142AFCD70A0F136E5D
:101C6000042E03D0FB0F01E3142A145000B0090F17
:101C700000B2090F00B4080F00B6060F00B8030F3A
:101C800000BA070F00BC040F00BE090F01B0080F17
:101C900001B2070F01B4050F01BA010F01BC020F19
:101CA00001BE050F156AF60F02E3152AFCD70A0FCD
:101CB000146E042E03D0FB0F01E3152A155000B05B
:101CC000050F00B2010F00B4030F00B6070F00B8F4
:101CD000050F00BC010F00BE020F01B0050F01B2DD
:101CE000010F01B4030F01B6070F01B8040F01BAC9
:101CF000080F01BC060F01BE020F02B0050F166AE5
:101D0000F60F02E3162AFCD70A0F156E042E03D035
:101D1000FB0F01E3162A165000B2010F00B4020FA8
:101D200000B6040F00B8090F00BA090F00BC080F75
:101D300000BE060F01B0020F01B2050F01B8010F7E
:101D400001BA020F01BC050F01BE010F02B0020F64
:101D500002B2050F176AF60F02E3172AFCD70A0F23
:101D6000166E042E03D0FB0F01E3172A175000BA9A
:101D7000010F00BC030F00BE070F01B0050F01B437
:101D8000010F01B6020F01B8040F01BA080F01BC20
:101D9000060F01BE030F02B0060F02B2020F02B41B
:101DA000050F186AF60F02E3182AFCD70A0F176E00
:101DB000042E03D0FB0F01E3182A185001B0010FC5
:101DC00001B2030F01B4060F01B6020F01B8040FF0
:101DD00001BA080F01BC070F01BE050F02B2010FC7
:101DE00002B4020F02B6050F196AF60F02E3192AB0
:101DF000FCD70A0F186E042E03D0FB0F01E3192A3B
:101E0000195001B6010F01B8020F01BA040F01BC4D
:101E1000090F01BE090F02B0090F02B2080F02B488
:101E2000060F02B6020F02B8050F1A6AF60F02E398
:101E30001A2AFCD70A0F196E042E03D0FB0F01E3F8
:101E40001A2A1A5001BE010F02B0030F02B2070F87
:101E500002B4050F02B6010F02B8020F02BA050F55
:101E60001B6AF60F02E31B2AFCD70A0F1A6E042E18
:101E700003D0FB0F01E31B2A1B5002B4010F02B673
:101E8000030F02B8060F02BA020F02BC050F1C6A4C
:101E9000F60F02E31C2AFCD70A0F1B6E042E03D098
:101EA000FB0F01E31C2A1C5002BA010F02BC020FF7
:101EB00002BE050F1D6AF60F02E31D2AFCD70A0FAA
:101EC0001C6E042E03D0FB0F01E31D2A300FEE6EB3
:101ED0001B50300FEE6E1A50300FEE6E1950300F4F
:101EE000EE6E1850300FEE6E1750300FEE6E16502B
:101EF000300FEE6E1550300FEE6E1450300FEE6E48
:101F00001350300FEE6E1250300FEE6E1150300F36
:101F1000EE6E1050300FEE6E0F50300FEE6E0E5012
:101F2000300FEE6E0D50300FEE6E0C50300FEE6E27
:101F30000B50300FEE6E0A50300FEE6E0950300F1E
:101F4000EE6E0850300FEE6E0750300FEE6E0650FA
:101F5000300FEE6E0550300FEE6E170EE4CF1DF011
:101F6000E4CF1CF0E4CF1BF0E4CF1AF0E4CF19F07B
:101F7000E4CF18F0E4CF17F0E4CF16F0E4CF15F07B
:101F8000E4CF14F0E4CF13F0E4CF12F0E4CF11F07B
:101F9000E4CF10F0E4CF0FF0E4CF0EF0E4CF0DF07B
:101FA000E4CF0CF0E4CF0BF0E4CF0AF0E4CF09F07B
:101FB000E4CF08F0E4CF07F0E4CF06F0E4CF05F07B
:101FC000120000C0E5FF01C0E5FF02C0E5FF03C04D
:101FD000E5FF04C0E5FF05C0E5FF06C0E5FF07C05B
:101FE000E5FF08C0E5FF09C0E5FF0AC0E5FF0BC03B
:101FF000E5FF0CC0E5FF006A016A026A040E025C9C
:10200000D8B0F3EF11F001C003F0012A100E035C09
:10201000D8B0E9D10001F12B100EF15D01E3F16BB5
:102020000001F139E8441F0B036E046A1E0E0326FB
:10203000010E042203C0E9FF04C0EAFFEFCF03F062
:10204000070EF115046E010E056E000E066E0450AB
:1020500006E0E86CD89005360636010FFCE3076A07
:102060000350051607500616055005E1065003E11A
:10207000056A052A01D0056A0550D880E866D8901F
:10208000056A05360550D8B4B9D70001F151020DE3
:10209000F450046EF3CF03F05C0E0324056E040EBF
:1020A0000420066E05C0E9FF06C0EAFFEECF05F08A
:1020B000EFCF06F00001EEA19DD0400E0324076E85
:1020C0000A0E0420086E07C0E9FF08C0EAFFEECF41
:1020D00007F0EFCF08F00650800FF36E0850800F26
:1020E000F35C02E10750055C03E2056A066A60D012
:1020F000600E03260A0E042203C0E9FF04C0EAFFB3
:10210000EECF03F0EFCF04F00450800FF36E0650D3
:10211000800FF35C02E10550035C04E205683F0EAA
:10212000066E46D00750055C096E085006580A6EC8
:10213000E86A0ABEFF0E0B6EE56E0B50E56E0A50A4
:10214000E56E0950E56EE56AE56A400EE56E000E43
:10215000E56A9FEC20F0096EF3CF0AF0F4CF0BF0A4
:10216000E9CF0CF0080EE1260750035C076E08501B
:102170000458086EE86A08BEFF0E036EE56E035051
:10218000E56E0850E56E0750E56E0C50E56E0B509D
:10219000E56E0A50E56E0950E56E97EC26F0036E89
:1021A000F3CF04F0080EE1260350056E0450066ECE
:1021B0000001ED51800FF36E0650800FF35C02E1D9
:1021C0000550EC5D03E3056A066A14D00001EC518A
:1021D000FF08036E3F0EED55046E0650800FF36E40
:1021E0000450800FF35C02E10350055C03E30568D3
:1021F0003F0E066E0001F151020DF450046EF3CF54
:1022000003F0200E03260A0E042203C0E9FF04C0D7
:10221000EAFFEECF03F0EFCF04F00350055C036E4E
:1022200004500658046ED88004AED89004E3041E0F
:10223000036CD8B4042A022A0001ED51800FF36E1A
:102240000450800FF35C02E10350EC5DD8B0D6D6A9
:102250000001F151020DF450086EF3CF07F0200E8B
:1022600007260A0E082207C0E9FF08C0EAFF05C0DA
:10227000EEFF06C0EFFF0001EEA55AD00001F151BC
:10228000020DF450086EF3CF07F0800E0724096E9C
:102290000A0E08200A6E09C0E9FF0AC0EAFFEECF65
:1022A0000BF0EFCF0CF00B500C10D8B441D0000E57
:1022B00007260A0E082207C0E9FF08C0EAFFEECF92
:1022C00007F0EFCF08F00750055C036E0850065882
:1022D000046E03101CE00450800F800F02E1010E19
:1022E000035C076A07360C50800F800F02E1010E75
:1022F0000B5C0B6A0B3607500B1809E109C0E9FFAC
:102300000AC0EAFF03C0EEFF04C0EFFF77D600016A
:10231000F151020DF450046EF3CF03F0800E03264A
:102320000A0E042203C0E9FF04C0EAFFEE6AEF6A66
:102330000001EEA343D000500EE100C003F0002ADC
:10234000046AF20E0326000E042203C0E9FF04C053
:10235000EAFF420EEF6E00C003F0002A046AF20E9C
:102360000326000E0422640E0001F125076E03C04F
:10237000E9FF04C0EAFF07C0EFFF00C003F0002A36
:10238000046AF20E0326000E04220650076E03C0F4
:10239000E9FF04C0EAFF07C0EFFF00C003F0002A16
:1023A000046AF20E0326000E04220550076E03C0D5
:1023B000E9FF04C0EAFF07C0EFFF20D6F1C003F039
:1023C0000650E56E0550E56EE56A0350E56E000EB9
:1023D000E56E540EE56E4E0EE56EC7EC30F0070E5E
:1023E000E126FEEF0FF002C001F000501DE00001F9
:1023F000EEA31AD000C002F0002A036AF20E0226F1
:10240000000E032202C0E9FF03C0EAFF0A0EEF6ECE
:102410000050E56E800EE56E000EE56EF20EE56E84
:1024200038EC29F0040EE1260150E4CF0CF0E4CFA3
:102430000BF0E4CF0AF0E4CF09F0E4CF08F0E4CFEA
:1024400007F0E4CF06F0E4CF05F0E4CF04F0E4CFEA
:1024500003F0E4CF02F0E4CF01F0E4CF00F012008B
:10246000D9CFE5FFE1CFD9FF00C0E5FF01C0E5FF0F
:1024700002C0E5FF03C0E5FF04C0E5FF05C0E5FFBE
:1024800006C0E5FF07C0E5FF08C0E5FF09C0E5FF9E
:102490000AC0E5FF0BC0E5FF020EDBCF00F0030E24
:1024A000DBCF01F0040EDBCF02F0050EDBCF03F033
:1024B000060EDBCF04F002500A6E0150096E005088
:1024C000086EE56A110EE56E0A50E56E0950E56E7C
:1024D0000850E56E800EE56E040EE56E240EE56E86
:1024E00035EC28F0080EE12633C405F034C406F0BC
:1024F000E86A040134BFFF0E076E0A01F96F065047
:10250000F86F0550F76FF66B03C005F004C006F0D6
:10251000E86A04BEFF0E076E086E24C409F0E56A7F
:10252000E56AE56A0950E56E0850E56E0750E56E0C
:102530000650E56E0550E56E9FEC20F00A01F26F43
:10254000F3CFF3FAF4CFF4FAE9CFF5FA080EE12667
:1025500004012551D8B4AFD00450800F800F02E1A0
:10256000010E035C25E304012A51800F7C0F08E172
:10257000000E295D05E1000E285D02E1000E275DD9
:1025800017E204013251800FF36E0A01F951800FF6
:10259000F35C0DE1F8510401315D09E10A01F751E5
:1025A0000401305D04E10A01F65104012F5D33E3BB
:1025B000D88004AED890D8A043D004012A51800F0F
:1025C000840F08E1000E295D05E1000E285D02E19F
:1025D000010E275D35E30A01F91D0A6EF81D096E2B
:1025E000F71D046EF61D036E032A04E1042A02E1BE
:1025F000094A0A2A0A50800FF36E04013251800FF3
:10260000F35C08E13151095C05E13051045C02E101
:102610002F51035C15E2055004012725036E065077
:102620002821046E07502921096E08502A210A6EBC
:102630000350276F0450286F0950296F0A502A6FE2
:10264000040127390F0B036E2839046EF00B041AAE
:1026500003262951E838F00B041229390F0B096EB3
:102660002A390A6EF00B0A1A0926F00E0AB60A2653
:1026700025C40BF0E56AE56AE56A0B50E56E0A5081
:10268000E56E0950E56E0450E56E0350E56E9FEC73
:1026900020F0036EF3CF04F0F4CF09F0E9CF0AF095
:1026A000080EE12603500A01F2270450F3230950D3
:1026B000F4230A50F52304012651D8B46CD02B51D1
:1026C000055C0A01FA6F04012C5106580A01FB6FE0
:1026D00004012D5107580A01FC6F04012E510858BE
:1026E0000A01FD6F800F800F08E1010EFC5D05E11E
:1026F000000EFB5D02E1000EFA5D07E3FF0E0A012A
:10270000FA6FFB6FFC6BFD6B14D00A01FD51800F5B
:10271000810F08E1FF0EFC5D05E1000EFB5D02E1AB
:10272000000EFA5D06E20A01FA6BFB6BFF0EFC6F0E
:10273000FD6F0A01FD31FC310A6E096A0932FB5155
:10274000E8407F0B0912FB31FA31046E036A033251
:1027500026C40BF0E56AE56AE56A0B50E56E0A509F
:10276000E56E0950E56E0450E56E0350E56E9FEC92
:1027700020F0036EF3CF04F0F4CF09F0E9CF0AF0B4
:10278000080EE12603500A01F2270450F3230950F2
:10279000F4230A50F523055004012B6F06502C6FCB
:1027A00007502D6F08502E6F0A01F951800FF36EFC
:1027B0000A01F551800FF35C0DE1F4510A01F85D57
:1027C00009E10A01F3510A01F75D04E10A01F2513E
:1027D0000A01F65D11E20A01F65104012F6F0A01A8
:1027E000F7510401306F0A01F8510401316F0A01F9
:1027F000F9510401326F3AD00A01F91D066EF81D35
:10280000056EF71D046EF61D036E032A04E1042A0B
:1028100002E1054A062A0A01F551800FF36E0650BF
:10282000800FF35C08E10550F45D05E10450F35DB1
:1028300002E10350F25D0AE2035004012F6F0450DD
:10284000306F0550316F0650326F10D00A01F251CF
:1028500004012F6F0A01F3510401306F0A01F45192
:102860000401316F0A01F5510401326FE56A110E5E
:10287000E56E800EE56E040EE56E240EE56E0250E8
:10288000E56E0150E56E0050E56E35EC28F0080E5F
:10289000E126E4CF0BF0E4CF0AF0E4CF09F0E4CF77
:1028A00008F0E4CF07F0E4CF06F0E4CF05F0E4CF82
:1028B00004F0E4CF03F0E4CF02F0E4CF01F0E4CF82
:1028C00000F0E4CFD9FF1200D9CFE5FFE1CFD9FF67
:1028D00000C0E5FF01C0E5FF02C0E5FF03C0E5FF62
:1028E00004C0E5FF05C0E5FF06C0E5FF07C0E5FF42
:1028F00008C0E5FF09C0E5FF0AC0E5FF020EDBCF17
:1029000000F0030EDBCF01F0040EDBCF02F0036A10
:10291000046ABDEC33F0056EFE0A01E077D06DEC81
:102920002EF0BDEC33F0066E030E065CD8A05AD034
:10293000060E065CD8B056D0FD0E0624076EFA6A65
:10294000FB6A0734FA36E834FA36FC0B5C0FE56EA6
:10295000290EFA22000EFB22E450F96EB4EF14F0B7
:10296000C6EF14F0DFEF14F00050090F076E000EF1
:102970000120086E000E022007C0E9FF08C0F3FF27
:1029800007EC36F0036EF3CF04F02CD00050090FA3
:10299000076E000E0120086E000E0220096E020E66
:1029A0000726000E0822092207C0E9FF08C0F3FF2E
:1029B000095007EC36F0036EF3CF04F013D000504B
:1029C000070F076E000E0120086E000E022007C0E0
:1029D000E9FF08C0F3FF6CEC36F0010B076E07C08F
:1029E00003F0046A06C007F00450E56E0350E56E7C
:1029F000E56A0750E56E000EE56E180EE56EB80E3E
:102A0000E56EC7EC30F0070EE12634D1070E055C09
:102A1000D8B030D1FA6AFB6A0534FA36E834FA36AF
:102A2000FC0B320FE56E2A0EFA22000EFB22E45058
:102A3000F96E27EF15F042EF15F054EF15F066EF41
:102A400015F098EF15F0CEEF15F0EDEF15F0005002
:102A5000230F036E000E0120046E000E0220E56EAF
:102A60000450E56E0350E56E90EC1AF0030EE1267B
:102A7000020EE56E00C0E9FF01C0F3FF025005EC55
:102A800037F0F8D00050330F036E000E0120046EB3
:102A9000000E0220E56E0450E56E0350E56E1DEC5D
:102AA0001DF0030EE126E6D00050440F036E000E29
:102AB0000120046E000E0220E56E0450E56E035006
:102AC000E56E1DEC1DF0030EE126D4D00050090F79
:102AD000036E000E0120046E000E0220056EBDEC98
:102AE00033F00A6E096AE56A0AC0F4FF03C0E9FF21
:102AF00004C0F3FF0550D7EC36F0BDEC33F0086AA4
:102B0000092608500A2209C0E5FF0AC0F4FF03C0E5
:102B1000E9FF04C0F3FF0550D7EC36F0010EE56E77
:102B200000C0E9FF01C0F3FF025005EC37F0A2D06E
:102B30000050090F036E000E0120046E000E0220EB
:102B4000056E020E0326000E04220522BDEC33F0B2
:102B50000A6E096AE56A0AC0F4FF03C0E9FF04C00F
:102B6000F3FF0550D7EC36F0BDEC33F0086A0926C8
:102B700008500A2209C0E5FF0AC0F4FF03C0E9FFBC
:102B800004C0F3FF0550D7EC36F0E56A00C0E9FF5A
:102B900001C0F3FF025005EC37F06CD00050070F76
:102BA000036E000E0120046E000E0220056EBDECC7
:102BB00033F0010BF46E03C0E9FF04C0F3FF0550CE
:102BC0006CEC36F0FE0BF410E56E03C0E9FF04C0B8
:102BD000F3FF055005EC37F04DD0BDEC33F0066E39
:102BE0000050160F036E000E0120046E000E02202E
:102BF000056E03500C0F076E000E0420086E000EC9
:102C00000520096E0650010BF46E07C0E9FF08C0ED
:102C1000F3FF09506CEC36F0FE0BF410E56E07C0C4
:102C2000E9FF08C0F3FF095005EC37F00650010A30
:102C300021E1080E0326000E04220522E56AF46A4B
:102C4000F66AF76A03C0E9FF04C0F3FF05507DECA4
:102C500036F0230E0026000E01220222E56AE56A04
:102C60000250E56E0150E56E0050E56EB7EC28F0BD
:102C7000050EE126E4CF0AF0E4CF09F0E4CF08F036
:102C8000E4CF07F0E4CF06F0E4CF05F0E4CF04F0A2
:102C9000E4CF03F0E4CF02F0E4CF01F0E4CF00F0A2
:102CA000E4CFD9FF120000C0E5FF01C0E5FF02C07C
:102CB000E5FF03C0E5FF0AEC26F05BEC1EF093ECA9
:102CC00033F0006EF3CF01F0F4CF02F0E9CF03F060
:102CD00004017C51005E7D51015A7E51025A7F51A0
:102CE000035A039E3F0E035C08E1FF0E025C05E100
:102CF000FF0E015C02E1FF0E005CD8B04CD193ECFA
:102D000033F0F3CF01F0F4CF02F0E9CF03F0880FF6
:102D100004017C6F130E01207D6F000E02207E6F78
:102D2000000E03207F6FE1EC0FF0800EE56E0F0EBA
:102D3000E56E230EE56E0EEC00F0030EE1260F01AA
:102D40002651006E2751016E005004019E6F015004
:102D50009F6F04C0E5FFF2CF04F0F29EA9510A0173
:102D6000DD6F0401AA510A01DE6F0401AB510A01B3
:102D7000DF6F0401AC510A01E06F0401AD510A019B
:102D8000E16F0401AE510A01E26F0401AF510A0183
:102D9000E36F0401B0510A01E46F0401B1510A016B
:102DA000E56F0401B2510A01E66F0401B3510A0153
:102DB000E76F0401B4510A01E86F0401B5510A013B
:102DC000E96F0401AD6BAE6BAF6BB06B04BEF28EFE
:102DD000E4CF04F0800EE56E040EE56E930EE56E12
:102DE000DDEC08F0030EE1269EC424F19FC425F11A
:102DF00001012551800F7C0F02E1000E245D04E3E8
:102E000001012469030E256F01012551800F840FF4
:102E100002E1010E245D05E2010E0101246FFC0EAA
:102E2000256F01012551800F800F02E1010E245D05
:102E300010E301012551800FF36E04019751800FBB
:102E4000F35C03E196510101245D03E20101246B6F
:102E5000256BD880010125AFD89015E30401971D9B
:102E6000016E961D006E004A012A0150800FF36E1C
:102E700001012551800FF35C02E12451005C03E263
:102E80000101246B256B04019AA309D0B5A507D0D5
:102E9000D880010125AFD89002E3246B256BD88040
:102EA000010125AFD89007E3251D016E241D006E9A
:102EB000004A012A04D024C100F025C101F000C05D
:102EC00026F101C027F101012651020BE840010B58
:102ED000E838E844F46EBD50DF0BF410BD6E2651A7
:102EE000010B010BE838F46EBD50EF0BF410BD6E12
:102EF00027352731016E2631006E01340132003250
:102F00000050BE6ED880010125AFD89003E38A90AF
:102F10008A8A02D08A9A8A80D88004019FAFD8908A
:102F200007E39F1D016E9E1D006E004A012A04D01A
:102F30009EC400F09FC401F00150800F800F02E199
:102F40000A0E005C0CE20001E051E11104E0FF0E0A
:102F5000E027E1230CD00001E26B899008D0900EAD
:102F60000001E06F010EE16F89800001E26FE2C0B5
:102F700000F0E56A0050E56E04019F51E56E9E5138
:102F8000E56E000EE56E320EE56E620EE56EC7EC84
:102F900030F0070EE126E4CF03F0E4CF02F0E4CFF7
:102FA00001F0E4CF00F0120000C0E5FF01C0E5FF32
:102FB00002C0E5FF03C0E5FF04C0E5FF3DEC37F0CC
:102FC00093EC33F0F3CF01F0F4CF02F0E9CF03F04C
:102FD000880F04017C6F130E01207D6F000E02200C
:102FE0007E6F000E03207F6FB3EC29F09386810E75
:102FF000006E0F0E016E0F0E036E380E002603508A
:1030000001220F0E036E800E005E0350015A810EE6
:10301000026E0F0E036E0F0E046E380E0226045061
:1030200003220F0E046E800E025E0450035A02C08B
:10303000E9FF03C0EAFFEFCF02F0028600C0E9FF1C
:1030400001C0EAFF02C0EFFF090EE56E000EE56A5F
:10305000C1EC2DF0E652E6528990899892909298B0
:103060008A908A9A8A828A889390939A9392939864
:1030700004019283800E006E040E016E0F0E036E2B
:10308000380E0026035001220F0E036E800E005EE4
:103090000350015A800E026E040E036E0F0E046E72
:1030A000380E0226045003220F0E046E800E025EBC
:1030B0000450035A02C0E9FF03C0EAFFEFCF02F059
:1030C000029200C0E9FF01C0EAFF02C0EFFF928355
:1030D000800E006E040E016E0F0E036E380E002679
:1030E000035001220F0E036E800E005E0350015A42
:1030F000800E026E040E036E0F0E046E380E022652
:10310000045003220F0E046E800E025E0450035A18
:1031100002C0E9FF03C0EAFFEFCF02F0029200C055
:10312000E9FF01C0EAFF02C0EFFF9283800E006E4C
:10313000040E016E0F0E036E380E0026035001229E
:103140000F0E036E800E005E0350015A800E026E59
:10315000040E036E0F0E046E380E02260450032276
:103160000F0E046E800E025E0450035A02C0E9FF87
:1031700003C0EAFFEFCF02F0029200C0E9FF01C0F6
:10318000EAFF02C0EFFF0C0EBD6EBD9ABD98BE6A8D
:10319000B96AB98293940401936B020E946F956B94
:1031A0000A0E966F976B100E986F070E996F9A9193
:1031B0009A83800EE56E040EE56EB60EE56EC1ECE8
:1031C0002EF0030EE126800EE56E040EE56ED70E9E
:1031D000E56E56EC24F0030EE126800EE56E040E3B
:1031E000E56EC60EE56E56EC24F0030EE1260401F2
:1031F000B16BB26BB36BB46BB591B5959C6B9D6BBA
:103200009E6B9F6BA46BA56BA66BA76B0C0E0F013F
:10321000546F0F01549B54990F01556B800EE56E4E
:103220000F0EE56E230EE56EC1EC2EF0030EE126C7
:10323000E56AE56A800EE56E0F0EE56E230EE56E1B
:10324000B7EC28F0050EE12624EC37F0E4CF04F0CB
:10325000E4CF03F0E4CF02F0E4CF01F0E4CF00F0DC
:10326000120043204D2025642025640A00004300FD
:103270002563000000C0E5FF01C0E5FF02C0E5FFD7
:1032800003C0E5FF04C0E5FF05C0E5FF06C0E5FF9C
:1032900007C0E5FF08C0E5FF09C0E5FF0AC0E5FF7C
:1032A0000BC0E5FF0CC0E5FF0DC0E5FF0EC0E5FF5C
:1032B000000E00B0010F00B2020F00B4040F00B600
:1032C000080F00B8060F00BA020F00BC040F00BEC2
:1032D000080F01B0060F01B2020F01B4040F01B6CE
:1032E000080F01B8060F01BA020F01BC040F01BE9E
:1032F000080F02B0060F02B2020F02B4040F02B6AA
:10330000080F02B8060F02BA020F02BC040F02BE79
:10331000080F056AF60F02E3052AFCD70A0F046EB0
:10332000055000B8010F00BA030F00BC060F00BE25
:10333000020F01B0050F01B2010F01B4020F01B677
:10334000040F01B8090F01BA090F01BC080F01BE33
:10335000060F02B0030F02B2070F02B4040F02B649
:10336000080F02B8070F02BA050F066AF60F02E34C
:10337000062AFCD70A0F056E065000BE010F01B0E9
:10338000020F01B2050F01BA010F01BC030F01BE0C
:10339000070F02B0050F02B4010F02B6020F02B808
:1033A000050F02BA010F02BC030F02BE060F076A27
:1033B000F60F02E3072AFCD70A0F066E075001B486
:1033C000010F01B6020F01B8040F01BA080F01BCCA
:1033D000060F01BE020F02B0050F02B2010F02B4C8
:1033E000020F02B6040F02B8080F02BA070F02BCA0
:1033F000040F02BE080F086AF60F02E3082AFCD782
:103400000A0F076E085001BC010F01BE030F02B086
:10341000060F02B2030F02B4060F02B6020F02B883
:10342000040F02BA090F02BC090F02BE080F096A95
:10343000F60F02E3092AFCD70A0F086E095002B200
:10344000010F02B4020F02B6050F02BC010F02BE4B
:10345000030F0A6AF60F02E30A2AFCD70A0F096E65
:103460000A5002B8010F02BA020F02BC040F02BEDA
:10347000080F0B6AF60F02E30B2AFCD70A0F0A6E3D
:103480000B500E6A0EE10A5010E1095012E108508B
:1034900014E1075016E1065018E105501AE10450F6
:1034A0001CD00E2A300FEE6E0A500E2A300FEE6E30
:1034B00009500E2A300FEE6E08500E2A300FEE6EB5
:1034C00007500E2A300FEE6E06500E2A300FEE6EA9
:1034D00005500E2A300FEE6E04500E2A300FEE6E9D
:1034E0000E50E4CF0EF0E4CF0DF0E4CF0CF0E4CFBB
:1034F0000BF0E4CF0AF0E4CF09F0E4CF08F0E4CF1A
:1035000007F0E4CF06F0E4CF05F0E4CF04F0E4CF19
:1035100003F0E4CF02F0E4CF01F0E4CF00F01200BA
:10352000D9CFE5FFE1CFD9FF00C0E5FF01C0E5FF3E
:1035300002C0E5FF03C0E5FF04C0E5FF05C0E5FFED
:1035400006C0E5FF07C0E5FF08C0E5FF09C0E5FFCD
:103550000AC0E5FF0BC0E5FF020EDBCF00F0030E53
:10356000DBCF01F0040EDBCF02F0036A046ABDEC8E
:1035700033F0056EFE0A01E063D06DEC2EF0BDEC79
:1035800033F0066E06500AE00650010A19E00650B4
:10359000020A28E006500A0A37E040D00050060F21
:1035A000076E000E0120086E000E022007C0E9FF22
:1035B00008C0F3FF07EC36F0036EF3CF04F02ED013
:1035C00000500C0F076E000E0120086E000E022046
:1035D00007C0E9FF08C0F3FF07EC36F0036EF3CF36
:1035E00004F01CD000500E0F076E000E0120086E74
:1035F000000E022007C0E9FF08C0F3FF07EC36F019
:10360000036EF3CF04F00AD000C0E9FF01C0F3FF5E
:10361000025007EC36F0036EF3CF04F00450E56E71
:103620000350E56EE56A0650E56E000EE56E5E0E2F
:10363000E56E200EE56EC7EC30F0070EE126A1D056
:1036400005500CE00550010A32E00550020A01E184
:1036500057D005500A0A01E17CD093D00050060FE4
:10366000056E000E0120066E000E0220076EBDECF6
:1036700033F00B6E0A6AE56A0BC0F4FF05C0E9FF80
:1036800006C0F3FF0750D7EC36F0BDEC33F0096A03
:103690000A2609500B220AC0E5FF0BC0F4FF05C043
:1036A000E9FF06C0F3FF0750D7EC36F06AD00050B0
:1036B0000C0F056E000E0120066E000E0220076E34
:1036C000BDEC33F00B6E0A6AE56A0BC0F4FF05C06F
:1036D000E9FF06C0F3FF0750D7EC36F0BDEC33F03E
:1036E000096A0A2609500B220AC0E5FF0BC0F4FF45
:1036F00005C0E9FF06C0F3FF0750D7EC36F041D014
:1037000000500E0F056E000E0120066E000E022006
:10371000076EBDEC33F00B6E0A6AE56A0BC0F4FF6E
:1037200005C0E9FF06C0F3FF0750D7EC36F0BDEC4B
:1037300033F0096A0A2609500B220AC0E5FF0BC0C4
:10374000F4FF05C0E9FF06C0F3FF0750D7EC36F0E1
:1037500018D0BDEC33F0046E036ABDEC33F0066A9A
:103760000326065004220450E56E0350E56E025015
:10377000E56E0150E56E0050E56E6CEC32F0050E22
:10378000E126E4CF0BF0E4CF0AF0E4CF09F0E4CF78
:1037900008F0E4CF07F0E4CF06F0E4CF05F0E4CF83
:1037A00004F0E4CF03F0E4CF02F0E4CF01F0E4CF83
:1037B00000F0E4CFD9FF1200800EE56E0A0EE56E30
:1037C000600EE56E14EC2FF0030EE126800EE56E20
:1037D0000A0EE56E400EE56E14EC2FF0030EE126A6
:1037E000800EE56E0A0EE56E620EE56E14EC2FF0AB
:1037F000030EE126800EE56E0A0EE56E420EE56EC2
:1038000014EC2FF0030EE126800EE56E0A0EE56E35
:10381000640EE56E14EC2FF0030EE126800EE56ECB
:103820000A0EE56E440EE56E14EC2FF0030EE12651
:10383000800EE56E0A0EE56E660EE56E14EC2FF056
:10384000030EE126800EE56E0A0EE56E460EE56E6D
:1038500014EC2FF0030EE126800EE56E0A0EE56EE5
:10386000680EE56E14EC2FF0030EE126800EE56E77
:103870000A0EE56E480EE56E14EC2FF0030EE126FD
:10388000800EE56E0A0EE56E6A0EE56E14EC2FF002
:10389000030EE126800EE56E0A0EE56E4A0EE56E19
:1038A00014EC2FF0030EE126800EE56E0A0EE56E95
:1038B0006C0EE56E14EC2FF0030EE126800EE56E23
:1038C0000A0EE56E4C0EE56E14EC2FF0030EE126A9
:1038D000800EE56E0A0EE56E6E0EE56E14EC2FF0AE
:1038E000030EE126800EE56E0A0EE56E4E0EE56EC5
:1038F00014EC2FF0030EE126800EE56E0A0EE56E45
:10390000700EE56E14EC2FF0030EE126800EE56ECE
:103910000A0EE56E500EE56E14EC2FF0030EE12654
:10392000800EE56E0A0EE56E720EE56E14EC2FF059
:10393000030EE126800EE56E0A0EE56E520EE56E70
:1039400014EC2FF0030EE126800EE56E0A0EE56EF4
:10395000740EE56E14EC2FF0030EE126800EE56E7A
:103960000A0EE56E540EE56E14EC2FF0030EE12600
:10397000800EE56E0A0EE56E760EE56E14EC2FF005
:10398000030EE126800EE56E0A0EE56E560EE56E1C
:1039900014EC2FF0030EE126800EE56E0A0EE56EA4
:1039A000780EE56E14EC2FF0030EE126800EE56E26
:1039B0000A0EE56E580EE56E14EC2FF0030EE126AC
:1039C000800EE56E0A0EE56E7A0EE56E14EC2FF0B1
:1039D000030EE126800EE56E0A0EE56E5A0EE56EC8
:1039E00014EC2FF0030EE126800EE56E0A0EE56E54
:1039F0007C0EE56E14EC2FF0030EE126800EE56ED2
:103A00000A0EE56E5C0EE56E14EC2FF0030EE12657
:103A1000800EE56E0A0EE56E7E0EE56E14EC2FF05C
:103A2000030EE126800EE56E0A0EE56E5E0EE56E73
:103A300014EC2FF0030EE1261200D9CFE5FFE1CF01
:103A4000D9FF00C0E5FF01C0E5FF02C0E5FF03C0EC
:103A5000E5FF04C0E5FF05C0E5FF06C0E5FF07C0C0
:103A6000E5FF08C0E5FF020EDBCF00F0030EDBCF61
:103A700001F0040EDBCF02F0036A046ABDEC33F000
:103A8000056EFE0A01E075D06DEC2EF0BDEC33F052
:103A9000066E040E065CD8B05AD0FA6AFB6A063489
:103AA000FA36E834FA36FC0BB80FE56E3A0EFA2215
:103AB000000EFB22E450F96E64EF1DF070EF1DF074
:103AC00083EF1DF096EF1DF000C0E9FF01C0F3FF8A
:103AD00002506CEC36F0076E07C003F0046A37D072
:103AE0000050010F076E000E0120086E000E02202C
:103AF00007C0E9FF08C0F3FF6CEC36F0076E07C0A3
:103B000003F0046A24D00050020F076E000E01205B
:103B1000086E000E022007C0E9FF08C0F3FF6CEC3E
:103B200036F0076E07C003F0046A11D000500F0F83
:103B3000076E000E0120086E000E022007C0E9FF8C
:103B400008C0F3FF07EC36F0036EF3CF04F0045027
:103B5000E56E0350E56EE56A0650E56E000EE56E13
:103B6000490EE56ECC0EE56EC7EC30F0070EE1268F
:103B70008DD0040E055CD8B089D0FA6AFB6A053492
:103B8000FA36E834FA36FC0B980FE56E3B0EFA2253
:103B9000000EFB22E450F96ED4EF1DF0E1EF1DF0B2
:103BA0000CEF1EF022EF1EF0BDEC33F0036E03C0ED
:103BB000E5FF00C0E9FF01C0F3FF025005EC37F05C
:103BC00065D00050010F036E000E0120046E000E40
:103BD0000220056EBDEC33F0066E06C0E5FF03C0A3
:103BE000E9FF04C0F3FF055005EC37F00650D8A4F8
:103BF0004DD00050030F036E000E0120046E000E26
:103C00000220E56AF46AF66AF76A03C0E9FF04C0B5
:103C1000F3FF7DEC36F03AD00050020F036E000E39
:103C20000120046E000E0220056EBDEC33F0066E1E
:103C300006C0E5FF03C0E9FF04C0F3FF055005EC33
:103C400037F024D00F0E0026000E01220222BDEC18
:103C500033F0066E056AE56A06C0F4FF00C0E9FFAE
:103C600001C0F3FF0250D7EC36F0BDEC33F0046A2C
:103C700005260450062205C0E5FF06C0F4FF00C07B
:103C8000E9FF01C0F3FF0250D7EC36F0E4CF08F0B3
:103C9000E4CF07F0E4CF06F0E4CF05F0E4CF04F082
:103CA000E4CF03F0E4CF02F0E4CF01F0E4CF00F082
:103CB000E4CFD9FF120000C0E5FF01C0E5FF02C05C
:103CC000E5FF03C0E5FF04C0E5FF05C0E5FF06C052
:103CD000E5FF07C0E5FF08C0E5FF09C0E5FFC2A298
:103CE00003D00001EF5104D10001F051D8B4ADD0A0
:103CF0000001EF51020DF450016EF3CF00F05C0EA5
:103D00000026040E012200C0E9FF01C0EAFFEECF49
:103D100002F0EFCF03F003340330056E0230046E7F
:103D20000534053204320534053204320450025C95
:103D3000046E05500358056EC3CF06F0076A06509F
:103D4000042607500522C4CF06F00650096E086A03
:103D5000085004260950052200C0E9FF01C0EAFF0F
:103D600004C0EEFF05C0EFFF0001EB51010A01E0C6
:103D70006AD00001EF51020DF450016EF3CF00F054
:103D80005C0E0024046E040E0120056E04C0E9FFE1
:103D900005C0EAFFEECF02F0EFCF03F0400E0026A1
:103DA0000A0E012200C0E9FF01C0EAFFEECF04F0D5
:103DB000EFCF05F09C0E0426D8A005060350800F17
:103DC000F36E0550800FF35C02E10450025C0EE2DA
:103DD0000250640F046E000E0320056E00C0E9FF60
:103DE00001C0EAFF04C0EEFF05C0EFFF0001EF5184
:103DF000020DF450016EF3CF00F0600E00260A0EA3
:103E0000012200C0E9FF01C0EAFFEECF04F0EFCFCE
:103E100005F0640E0426D8B0052A0550800FF36E15
:103E20000350800FF35C02E10250045C0CE29C0E34
:103E30000226D8A0030600C0E9FF01C0EAFF02C0C5
:103E4000EEFF03C0EFFF0001F06B0001EF2B100E3F
:103E5000EF5D01E3EF6B0001EF39E8441F0B006EEB
:103E6000016A1E0E0026010E012200C0E9FF01C0FA
:103E7000EAFFEFCF00F0070EEF15016E010E026EA4
:103E8000000E036E015006E0E86CD890023603364F
:103E9000010FFCE3046A005002160450031602509E
:103EA00005E1035003E1026A022A01D0026A0250CE
:103EB000D880E866D890026A0236025017E0E80E11
:103EC0000001EF25006E016A040E012200C0E9FF27
:103ED00001C0EAFFEFCF00F00044E844FC0B016EA4
:103EE0000128C26EC282010E0001F06F0001EF5185
:103EF000E4CF09F0E4CF08F0E4CF07F0E4CF06F018
:103F0000E4CF05F0E4CF04F0E4CF03F0E4CF02F017
:103F1000E4CF01F0E4CF00F01200D9CFE5FFE1CF0C
:103F2000D9FF00C0E5FF01C0E5FF02C0E5FF03C007
:103F3000E5FF04C0E5FF05C0E5FF06C0E5FF07C0DB
:103F4000E5FF08C0E5FF09C0E5FF0AC0E5FF0BC0BB
:103F5000E5FF020EDBCF00F0030EDBCF01F0040E15
:103F6000DBCF02F0050EDBCF03F0060EDBCF04F053
:103F7000070EDBCF05F0080EDBCF06F0090EDBCF16
:103F800007F006C008F0060608500EE006500424AC
:103F9000086EE86A06BEE8680520096E08C0E9FFF9
:103FA00009C0EAFFEF6AEDD700500101146F01501C
:103FB000156F0250166F0350176F14C100F015C132
:103FC00001F016C102F017C103F0066A086A096A17
:103FD000800E03140A6E065007E1085005E10950EF
:103FE00003E10A50800A01E012D0039E0050010153
:103FF000146F0150156F0250166F0350176F04C0F5
:10400000E9FF05C0EAFF2D0EEF6E044A052A010103
:10401000163517357E08006E1451016E1551026E6B
:104020007F0E1615036E066A038E086A096A0A6A0D
:104030000B6A005019E0D88000AED8900EE308500B
:10404000082609360A360B3603BE088001500126C1
:10405000023603360636002AECD7D89006320332F1
:10406000023201320006E5D7085009100A100B1081
:1040700012E00550E56E0450E56E0B50E56E0A50F7
:10408000E56E0950E56E0850E56E68EC33F0006EA1
:10409000060EE12608D004C0E9FF05C0EAFF300E95
:1040A000EF6E010E006E00500426E86A00BEE8685C
:1040B0000522075028E004C0E9FF05C0EAFF2E0EE4
:1040C000EF6E002A044A052A07501808E56E0550CD
:1040D000E56E0450E56E0650E56E0350E56E025045
:1040E000E56E0150E56ED5EC32F0016E070EE1266B
:1040F0000150002607500426E86A052204C0E9FFA3
:1041000005C0EAFFEF6A0050E4CF0BF0E4CF0AF0FD
:10411000E4CF09F0E4CF08F0E4CF07F0E4CF06F0F5
:10412000E4CF05F0E4CF04F0E4CF03F0E4CF02F0F5
:10413000E4CF01F0E4CF00F0E4CFD9FF1200D9CFF3
:10414000E5FFE1CFD9FF00C0E5FF01C0E5FF02C0F8
:10415000E5FF03C0E5FF04C0E5FF05C0E5FF06C0BD
:10416000E5FF07C0E5FF020EDBCF00F0030EDBCF5B
:1041700001F0040EDBCF02F0050EDBCF03F0060EDC
:10418000DBCF04F0070EDBCF05F0080EDBCF06F027
:10419000090EDBCF07F000500101006F0150016FE5
:1041A0000250026F0350036F04500101046F055069
:1041B000056F0650066F0750076F0101005101019E
:1041C0000603F4CF01F0F3CF00F0005001010A6FB5
:1041D00001500B6F0101005101010403F4CF01F004
:1041E000F3CF00F000500101086F0150096F010189
:1041F000035101010403F3CF00F001010B5100262C
:1042000000500B6F0101025101010503F3CF00F0D3
:1042100001010B51002600500B6F010102510101F9
:104220000403F4CF01F0F3CF00F001010A5100269E
:104230000B51012200500A6F01500B6F0101015117
:1042400001010503F4CF01F0F3CF00F001010A51A1
:1042500000260B51012200500A6F01500B6F010123
:10426000015101010603F3CF00F0005001010F6F6F
:104270000101015101010403F4CF01F0F3CF00F07B
:10428000005001010D6F01500E6F0101005101013D
:104290000703F3CF00F000500101136F010100513B
:1042A00001010503F4CF01F0F3CF00F0005001014C
:1042B000116F0150126F01010C6B0101106B0101B4
:1042C0000C5101010825006E01010D510101092168
:1042D000016E01010E5101010A21026E01010F510F
:1042E00001010B21036E0050086F0150096F02504D
:1042F0000A6F03500B6F0101105101010825006E78
:104300000101115101010921016E01011251010147
:104310000A21026E0101135101010B21036E03C03A
:10432000E9FF02C0F4FF01C0F3FF0050E4CF07F043
:10433000E4CF06F0E4CF05F0E4CF04F0E4CF03F0DF
:10434000E4CF02F0E4CF01F0E4CF00F0E4CFD9FFF6
:10435000120000C0E5FF01C0E5FF0001E851D8B43C
:10436000F5D09DA81DD09EA81BD00101325101019E
:104370002F1905E1BBEC36F001012F6BE7D0000EE1
:1043800001013225006E016A0F0E012200C0E9FF13
:1043900001C0EAFFEFCF2BF1322B2BC1ADFFD6D0FE
:1043A0009EAAD4D0ABA205D001013081BBEC36F07F
:1043B000CDD0ABA405D001013083BBEC36F0C6D024
:1043C000ABA03ED0AECF2BF1800E0001E911010170
:1043D0002B1904E101013089AB96B8D001012B51B2
:1043E00004E02B510001E91927E101013099AB9656
:1043F00001012B5103E00101309702D00101308708
:104400002BC134F12DC135F101012D050101366FAC
:10441000600E01013525006E016A000E012200C008
:10442000E9FF01C0EAFF2BC1EFFF352B3551800AB0
:1044300002E10101356B8AD001013099AB8686D04B
:10444000AECF2BF1010130A919D0800E0001E91186
:1044500001012B1911E18B909D9AAB9801012F510D
:1044600004E1AD6ABBEC36F007D000CFADFF010E22
:104470000101326F9D886AD0AB8668D001012B5153
:104480000101342701013551010136191BE10101F8
:1044900034510CE135C12DF1010130B712D08B90B0
:1044A0009D9AAB98AD6ABBEC36F00BD0010130851C
:1044B00030B707D08B909D9AAB98010EAD6EBBECD8
:1044C00036F044D00101355101012E1908E10101F6
:1044D0002E5101012D1903E0BBEC36F037D02DC170
:1044E00000F0016A004A012AE56A800EE56E01507B
:1044F000E56E0050E56EA4EC2AF0006E040EE12695
:10450000005001012C6F010135190CE11F0E010152
:104510002B150101366F362B362B01012D51010170
:104520003627369F35C100F00101352B016A600E38
:104530000026000E012200C0E9FF01C0EAFF2BC1E6
:10454000EFFF3551800A02E10101356BE4CF01F044
:10455000E4CF00F01200D9CFE5FFE1CFD9FF00C0D2
:10456000E5FF01C0E5FF02C0E5FF03C0E5FF04C0B1
:10457000E5FF05C0E5FF06C0E5FF07C0E5FF08C091
:10458000E5FF09C0E5FF0AC0E5FF0BC0E5FF0CC071
:10459000E5FF0DC0E5FF0EC0E5FF0FC0E5FF020E11
:1045A000DBCF00F0030EDBCF01F0040EDBCF02F017
:1045B000050EDBCF03F0060EDBCF04F0070EDBCFDA
:1045C00005F0080EDBCF06F0200E076E086A06C065
:1045D00009F00A6A0B6A0C6AE56AE56AE56A09503D
:1045E000E56E0350E56E0250E56E0150E56E005039
:1045F000E56EEAEC24F00D6E080EE126300E0D2675
:104600003A0E0D5C05E30D500E6E270E0E240D6E56
:10461000FF0E07260822A00E07240E6E0A0E0820A1
:104620000F6E0EC0E9FF0FC0EAFF0DC0EFFF0C5088
:10463000E56E0B50E56E0A50E56E0950E56E0350CD
:10464000E56E0250E56E0150E56E0050E56E97ECA8
:1046500026F0006EF3CF01F0F4CF02F0E9CF03F0C3
:10466000080EE1260050011002100310D8A4AFD7A5
:1046700007C000F008C001F004C002F005C003F05C
:1046800000C004F001C005F0004A012AA00E042673
:104690000A0E052204C0E9FF05C0EAFFEFCF04F0CF
:1046A00002C0E9FF03C0EAFF04C0EFFF024A032A89
:1046B000000E015C02E1200E005CE2E302C0E9FFB3
:1046C00003C0EAFF000EEF6AE4CF0FF0E4CF0EF074
:1046D000E4CF0DF0E4CF0CF0E4CF0BF0E4CF0AF020
:1046E000E4CF09F0E4CF08F0E4CF07F0E4CF06F020
:1046F000E4CF05F0E4CF04F0E4CF03F0E4CF02F020
:10470000E4CF01F0E4CF00F0E4CFD9FF1200D9CF1D
:10471000E5FFE1CFD9FF00C0E5FF01C0E5FF02C022
:10472000E5FF03C0E5FF04C0E5FF05C0E5FF06C0E7
:10473000E5FF07C0E5FF08C0E5FF09C0E5FF0AC0C7
:10474000E5FF0BC0E5FF0CC0E5FF0DC0E5FF020E65
:10475000DBCF00F0030EDBCF01F0040EDBCF02F065
:10476000050EDBCF03F0060EDBCF04F0070EDBCF28
:1047700005F0080EDBCF06F0090EDBCF07F0D8807E
:1047800003AED890086A083608500FE0031C0C6E80
:10479000021C0B6E011C0A6E001C096E092A0DE139
:1047A0000A2A0BE10B4A0C2A08D000C009F001C00C
:1047B0000AF002C00BF003C00CF0D88007AED8900E
:1047C000006A003600500FE0071C0D6E061C036ED9
:1047D000051C026E041C016E012A0DE1022A0BE188
:1047E000034A0D2A08D004C001F005C002F006C03B
:1047F00003F007C00DF00D50E56E0350E56E02505A
:10480000E56E0150E56E0C50E56E0B50E56E0A50FA
:10481000E56E0950E56E97EC26F0016EF3CF02F0DD
:10482000F4CF03F0E9CF04F0080EE1260050081A97
:10483000085016E0041C076E031C066E021C056E71
:10484000011C006E002A04E1052A02E1064A072A3B
:1048500007C0E9FF06C0F4FF05C0F3FF005007D012
:1048600004C0E9FF03C0F4FF02C0F3FF0150E4CF2E
:104870000DF0E4CF0CF0E4CF0BF0E4CF0AF0E4CF7E
:1048800009F0E4CF08F0E4CF07F0E4CF06F0E4CF7E
:1048900005F0E4CF04F0E4CF03F0E4CF02F0E4CF7E
:1048A00001F0E4CF00F0E4CFD9FF1200D9CFE5FF4B
:1048B000E1CFD9FF00C0E5FF01C0E5FF02C0E5FF81
:1048C00003C0E5FF04C0E5FF05C0E5FF06C0E5FF46
:1048D00007C0E5FF020EDBCF00F0030EDBCF01F0D7
:1048E000040EDBCF02F000500B0F036E000E012010
:1048F000046E000E0220E56AF46AF66AF76A03C0E5
:10490000E9FF04C0F3FF7DEC36F00050070F036EA3
:10491000000E0120046E000E0220056E0050030FF1
:10492000066E000E0120076E000E0220E56AF46A92
:10493000F66AF76A06C0E9FF07C0F3FF7DEC36F0C0
:10494000E56AF46AF66AF76A03C0E9FF04C0F3FF98
:1049500005507DEC36F00050010F036E000E012073
:10496000046E000E0220056E0050020F066E000E4F
:104970000120076E000E0220E56A06C0E9FF07C0AD
:10498000F3FF05EC37F0E56A03C0E9FF04C0F3FF6D
:10499000055005EC37F0E56A00C0E9FF01C0F3FF00
:1049A000025005EC37F0E4CF07F0E4CF06F0E4CF97
:1049B00005F0E4CF04F0E4CF03F0E4CF02F0E4CF5D
:1049C00001F0E4CF00F0E4CFD9FF120025642025E8
:1049D000640A0000D9CFE5FFE1CFD9FF00C0E5FFB1
:1049E00001C0E5FF02C0E5FF03C0E5FF04C0E5FF2D
:1049F00005C0E5FF06C0E5FF07C0E5FF08C0E5FF0D
:104A000009C0E5FF0AC0E5FF020EDBCF00F0030E90
:104A1000DBCF01F0040EDBCF02F0050EDBCF03F09D
:104A2000060EDBCF04F0070EDBCF05F0080EDBCF60
:104A300006F0090EDBCF07F0086A096A0750800B01
:104A4000E8440A6E0A501BE1045004260536063677
:104A500007360750035C08E10650025C05E105508B
:104A6000015C02E10450005C06E2D8900732063295
:104A70000532043204D0092A09C008F0DFD70750F4
:104A8000035C08E10650025C05E10550015C02E1AF
:104A90000450005C08E30450005E0550015A0650C3
:104AA000025A0750035AD8900732063205320432B0
:104AB00008C009F008060950E2E103C0E9FF02C09E
:104AC000F4FF01C0F3FF0050E4CF0AF0E4CF09F097
:104AD000E4CF08F0E4CF07F0E4CF06F0E4CF05F030
:104AE000E4CF04F0E4CF03F0E4CF02F0E4CF01F030
:104AF000E4CF00F0E4CFD9FF120000C0E5FF01C011
:104B0000E5FF03C0E5FF04C0E5FF05C0E5FF06C003
:104B1000E5FF07C0E5FF08C0E5FF09C0E5FF0AC0E3
:104B2000E5FF0BC0E5FFFECA00F0FFCA01F00A0175
:104B3000FE3F01D0FF2B0050E56EADEC36F0E652A3
:104B4000076E046A056A066AFECA00F0FFCA01F031
:104B50000A01FE3F01D0FF2B0050E56EADEC36F0B0
:104B6000E6520B6A0A6E086A0850041205120A50CF
:104B700006120B500712FECA00F0FFCA01F00A012C
:104B8000FE3F01D0FF2B0050E56EADEC36F0E65253
:104B9000036E006A03C001F0E86A03BEFF0E086EF0
:104BA000096E0050041201500512085006120950F7
:104BB0000712FECA00F0FFCA01F00A01FE3F01D051
:104BC000FF2B0050E56EADEC36F0E652016A0412A0
:104BD000015005120612071207C0E9FF06C0F4FFD4
:104BE00005C0F3FF0450E4CF0BF0E4CF0AF0E4CFAC
:104BF00009F0E4CF08F0E4CF07F0E4CF06F0E4CF0B
:104C000005F0E4CF04F0E4CF03F0E4CF01F0E4CF0B
:104C100000F0120000C0E5FF01C0E5FF02C0E5FFA3
:104C200003C0E5FF04C0E5FF01012E5101012D196C
:104C300001E15FD02EC100F0002A009E600E00242A
:104C4000016E026A000E022201C0E9FF02C0EAFF03
:104C5000EFCF38F11F0E010138172EC137F138514F
:104C600001013727372B372B379FBDEC33F0016E0F
:104C7000015003E1016A012A01D0016ABDEC33F061
:104C80000101386F800E3815026E1F0E3815036E45
:104C900003C004F003C038F1045003E12DC12EF12C
:104CA0003BD001501BE0025022E0BDEC33F0006E1F
:104CB000010138070050420A1AE000504E0A03E191
:104CC00045EC30F014D00050460A03E1FAEC36F01F
:104CD0000ED00050490A0BE1FF0009D02EC139F176
:104CE000025003E0FBEC2FF002D06AEC2DF037C14C
:104CF0002EF10001E5510001E61906E001012F51F6
:104D000003E123EC27F008D08BB006D001012F512E
:104D100003E1ACB2BBEC36F0E4CF04F0E4CF03F037
:104D2000E4CF02F0E4CF01F0E4CF00F01200D9CFDD
:104D3000E5FFE1CFD9FF00C0E5FF01C0E5FF02C0FC
:104D4000E5FF03C0E5FF04C0E5FF05C0E5FF06C0C1
:104D5000E5FF07C0E5FF08C0E5FF09C0E5FF0AC0A1
:104D6000E5FF0BC0E5FF0CC0E5FF0DC0E5FF020E3F
:104D7000DBCF00F0030EDBCF01F0040EDBCF02F03F
:104D8000050EDBCF03F0060EDBCF04F0070EDBCF02
:104D900005F0080EDBCF06F0090EDBCF07F0086A3E
:104DA000096A0A6A0B6A200E0C6E0350800BE844F5
:104DB0000D6E0050002601360236033608500826D4
:104DC00009360A360B360D50D8A4088007500B5C04
:104DD00008E106500A5C05E10550095C02E1045057
:104DE000085C09E30450085E0550095A06500A5A47
:104DF00007500B5A00800C2ED8D703C0E9FF02C021
:104E0000F4FF01C0F3FF0050E4CF0DF0E4CF0CF04D
:104E1000E4CF0BF0E4CF0AF0E4CF09F0E4CF08F0E0
:104E2000E4CF07F0E4CF06F0E4CF05F0E4CF04F0E0
:104E3000E4CF03F0E4CF02F0E4CF01F0E4CF00F0E0
:104E4000E4CFD9FF120000C0E5FF01C0E5FF02C0BA
:104E5000E5FF03C0E5FFACA276D0EEEC34F0006EC7
:104E6000005005E10001E66B0001E56B6CD0E6C087
:104E700001F000500126EEEC34F0026E0006025004
:104E8000230A1FE1010E005CD8A05BD0EEEC34F0E9
:104E9000026E690A03E138EC33F053D00250720A13
:104EA00003E1BBEC36F04DD00250730A01E049D06B
:104EB0008B80AB869D8A9D98AE50AE50AB98AB88E8
:104EC00040D00250430A05E00250420A01E039D0C6
:104ED00001D0008E00C031F100500F01006F010EB3
:104EE0000101326F0001E651011814E0EEEC34F0DC
:104EF000026E01013127000E01013225006E036AA6
:104F00000F0E032200C0E9FF03C0EAFF02C0EFFF5B
:104F1000322BE8D7000E01013225006E026A0F0E17
:104F200002220101311D036E032A00C0E9FF02C005
:104F3000EAFF03C0EFFF0101322B32C12FF1010163
:104F4000296B01C0E6F0E4CF03F0E4CF02F0E4CF38
:104F500001F0E4CF00F01200D9CFE5FFE1CFD9FF97
:104F600000C0E5FF01C0E5FF02C0E5FF03C0E5FFAB
:104F700004C0E5FF05C0E5FF06C0E5FF07C0E5FF8B
:104F8000020EDBCF00F0030EDBCF01F0040EDBCF0F
:104F900002F0050EDBCF03F002C006F00650046EEF
:104FA000800A33E100C0E9FF01C0F3FF025048EC82
:104FB00035F0056EF3CF06F0F4CF07F003C0E5FF40
:104FC00005C0E9FF06C0F3FF075005EC37F000C04D
:104FD000E9FF01C0F3FF025048EC35F0056EF3CF56
:104FE00006F0F4CF07F0052A02E3064A072A05C0B7
:104FF000E5FF06C0F4FF07C0F6FF00C0E9FF01C0EF
:10500000F3FF02509EEC36F01DD004AA1BD0047AA8
:10501000045004E1035042EC37F014D00450010A6C
:1050200004E1035002EC00F00DD004500F0A04E13B
:10503000035007EC33F006D004500E0A03E103508E
:1050400052EC37F0E4CF07F0E4CF06F0E4CF05F000
:10505000E4CF04F0E4CF03F0E4CF02F0E4CF01F0BA
:10506000E4CF00F0E4CFD9FF1200D9CFE5FFE1CFC4
:10507000D9FF00C0E5FF01C0E5FF02C0E5FF03C0A6
:10508000E5FF04C0E5FF05C0E5FF06C0E5FF07C07A
:10509000E5FF08C0E5FF09C0E5FF0AC0E5FF0BC05A
:1050A000E5FF0CC0E5FF020EDBCF00F0030EDBCF07
:1050B00001F0040EDBCF02F0050EDBCF03F0060E8D
:1050C000DBCF04F0070EDBCF05F0080EDBCF06F0D8
:1050D000090EDBCF07F002500A6E0150096E005036
:1050E000086E06C00BF007C00CF0FF0E0626072264
:1050F0000B500C101AE003C0E9FF04C0F3FF055089
:105100006CEC36F00B6E032A02E3044A052A0BC04E
:10511000E5FF08C0E9FF09C0F3FF0A5005EC37F0CE
:10512000082ADFE3094A0A2ADCD702C0F4FF01C0DB
:10513000F3FF0050E4CF0CF0E4CF0BF0E4CF0AF023
:10514000E4CF09F0E4CF08F0E4CF07F0E4CF06F0B5
:10515000E4CF05F0E4CF04F0E4CF03F0E4CF02F0B5
:10516000E4CF01F0E4CF00F0E4CFD9FF1200D9CFB3
:10517000E5FFE1CFD9FF00C0E5FF01C0E5FF02C0B8
:10518000E5FF03C0E5FF04C0E5FF05C0E5FF06C07D
:10519000E5FF07C0E5FF08C0E5FF0BC0E5FF0CC059
:1051A000E5FF0DC0E5FF020EDBCF00F0030EDBCF05
:1051B00001F0040EDBCF02F0050EDBCF03F0060E8C
:1051C000DBCF04F003C0E5FF04C0F4FF00C0E9FF3B
:1051D00001C0F3FF0250D7EC36F00050020F056E0D
:1051E000000E0120066E000E0220076EE86A04BE63
:1051F000FF0E086E0D6E04500C6E03500B6EE56AC8
:105200000BC0F4FF0CC0F6FF0DC0F7FF05C0E9FFAF
:1052100006C0F3FF07507DEC36F0080E0026000EA6
:1052200001220222E56AF46AF66AF76A00C0E9FF21
:1052300001C0F3FF02507DEC36F0E4CF0DF0E4CF77
:105240000CF0E4CF0BF0E4CF08F0E4CF07F0E4CFAC
:1052500006F0E4CF05F0E4CF04F0E4CF03F0E4CFB0
:1052600002F0E4CF01F0E4CF00F0E4CFD9FF120068
:10527000D9CFE5FFE1CFD9FF00C0E5FF01C0E5FFD1
:1052800002C0E5FF03C0E5FF04C0E5FF05C0E5FF80
:1052900006C0E5FF07C0E5FF020EDBCF00F0030EFE
:1052A000DBCF01F0040EDBCF02F0050EDBCF03F005
:1052B000E6C0E7F00001E5510001E75FE70703C042
:1052C00004F0056A030E0426D8B0052AE7C006F0EC
:1052D000076A0750800FF36E0550800FF35C02E100
:1052E0000450065C02E2E8682BD0020E035C02E286
:1052F000E86A26D003060350E56E83EC31F0E652EF
:10530000046A0350045C14E204500024056EE86A49
:105310000120066EE86A022005C0E9FF06C0F3FF1F
:105320006CEC36F0042AE56E83EC31F0E652E9D7F6
:10533000E6C0E7F00001E5510001E75FE707E86A32
:10534000E4CF07F0E4CF06F0E4CF05F0E4CF04F0BB
:10535000E4CF03F0E4CF02F0E4CF01F0E4CF00F0BB
:10536000E4CFD9FF120000C0E5FF01C0E5FF02C095
:10537000E5FF03C0E5FF04C0E5FF006A1E0E002440
:10538000016E026A010E022201C0E9FF02C0EAFFBB
:10539000EF6A002A020E005CF1E3006A016A026A09
:1053A0005C0E0124036E040E0220046E03C0E9FFAC
:1053B00004C0EAFFEE6AEF6A000E0124036E0A0ED3
:1053C0000220046E03C0E9FF04C0EAFFEE6AEF6A40
:1053D000200E0124036E0A0E0220046E03C0E9FFB2
:1053E00004C0EAFFEE6AEF6A400E0124036E0A0E63
:1053F0000220046E03C0E9FF04C0EAFFEE6AEF6A10
:10540000600E0124036E0A0E0220046E03C0E9FF41
:1054100004C0EAFFEE687F0EEF6E020E0126D8B0E0
:10542000022A002A100E005CD8A0BAD7AF0EC06EB8
:10543000C16A010EC26EC282E4CF04F0E4CF03F071
:10544000E4CF02F0E4CF01F0E4CF00F012004320FB
:10545000412025642025640A0000D9CFE5FFE1CF73
:10546000D9FF00C0E5FF01C0E5FF02C0E5FF03C0B2
:10547000E5FF04C0E5FF05C0E5FF020EDBCF00F04D
:10548000030EDBCF01F0040EDBCF02F00050020D63
:10549000F450036EF3CF00F0000E0024046E0A0EE9
:1054A0000320056E04C0E9FF05C0EAFF01C0EEFF5E
:1054B00002C0EFFF200E0024046E0A0E0320056ECA
:1054C00004C0E9FF05C0EAFFEECF04F0EFCF05F01E
:1054D0000150045C016E02500558026E800E0026D9
:1054E0000A0E032200C0E9FF03C0EAFF01C0EEFF7D
:1054F00002C0EFFFD88002AED89004E3021E016C18
:10550000D8B4022A0250800F800F02E1030E015C22
:1055100002E2016A026A0150021007E100C0E9FFDD
:1055200003C0EAFF000EEE6AEF6AE4CF05F0E4CFB5
:1055300004F0E4CF03F0E4CF02F0E4CF01F0E4CFD5
:1055400000F0E4CFD9FF1200D9CFE5FFE1CFD9FFBA
:1055500000C0E5FF01C0E5FF02C0E5FF03C0E5FFB5
:1055600004C0E5FF05C0E5FF06C0E5FF020EDBCF86
:1055700000F0030EDBCF01F0040EDBCF02F0050ECE
:10558000DBCF03F0D88001AED890046A0436045013
:1055900007E0011C066E001C056E054A062A04D0B1
:1055A00000C005F001C006F0D88003AED89007E334
:1055B000031C016E021C006E004A012A04D002C0C6
:1055C00000F003C001F00150E56E0050E56E06509A
:1055D000E56E0550E56E0DEC2DF0006EF3CF01F099
:1055E000040EE12604500AE0011C036E001C026E4A
:1055F000024A032A03C0F3FF025003D001C0F3FFA5
:105600000050E4CF06F0E4CF05F0E4CF04F0E4CF9F
:1056100003F0E4CF02F0E4CF01F0E4CF00F0E4CFF8
:10562000D9FF1200D9CFE5FFE1CFD9FF00C0E5FFD8
:1056300001C0E5FF02C0E5FF03C0E5FF04C0E5FFD0
:1056400005C0E5FF020EDBCF00F0030EDBCF01F05B
:10565000040EDBCF02F0050EDBCF03F0FECA04F030
:10566000FFCA05F00A01FE3F01D0FF2B0350E56E93
:105670000450E56E0EEC34F0E652E652FECA04F039
:10568000FFCA05F00A01FE3F01D0FF2B0250056E54
:10569000E56E0450E56E0EEC34F0E652E652FECABA
:1056A00004F0FFCA05F00A01FE3F01D0FF2B0150B4
:1056B000056EE56E0450E56E0EEC34F0E652E652EF
:1056C000FECA04F0FFCA05F00A01FE3F01D0FF2B1D
:1056D0000050E56E0450E56E0EEC34F0E652E652F2
:1056E000E4CF05F0E4CF04F0E4CF03F0E4CF02F020
:1056F000E4CF01F0E4CF00F0E4CFD9FF1200D9CF1E
:10570000E5FFE1CFD9FF00C0E5FF01C0E5FF02C022
:10571000E5FF03C0E5FF04C0E5FF05C0E5FF06C0E7
:10572000E5FF020EDBCF00F0030EDBCF01F0040E2D
:10573000DBCF02F00101285119E17DEC25F0036E69
:10574000F3CF04F0F4CF05F0E9CF06F003C0E5FF96
:1057500004C0F4FF05C0F6FF06C0F7FF00C0E9FF74
:1057600001C0F3FF02507DEC36F01ED0010128513C
:10577000010A1AE100C0E9FF01C0F3FF0250CEECBC
:1057800034F0006EF3CF01F0F4CF02F0E9CF03F074
:105790000350E56E0250E56E0150E56E0050E56E77
:1057A00012EC2BF0040EE126E4CF06F0E4CF05F076
:1057B000E4CF04F0E4CF03F0E4CF02F0E4CF01F053
:1057C000E4CF00F0E4CFD9FF1200D9CFE5FFE1CF5D
:1057D000D9FF00C0E5FF01C0E5FF02C0E5FF03C03F
:1057E000E5FF04C0E5FF020EDBCF00F0030EDBCFC8
:1057F00001F0040EDBCF02F00050070F036E000E25
:105800000120046E000E0220E56E0450E56E035088
:10581000E56E07EC31F0030EE1260050230F036E16
:10582000000E0120046E000E0220E56E0450E56EAD
:105830000350E56E18EC2EF0030EE1260050330FF6
:10584000036E000E0120046E000E0220E56E04506F
:10585000E56E0350E56EAEEC2CF0030EE126440E2F
:105860000026000E012202220250E56E0150E56E74
:105870000050E56EAEEC2CF0030EE126E4CF04F010
:10588000E4CF03F0E4CF02F0E4CF01F0E4CF00F086
:10589000E4CFD9FF1200D9CFE5FFE1CFD9FF00C097
:1058A000E5FF01C0E5FF02C0E5FF03C0E5FF04C05E
:1058B000E5FF05C0E5FF06C0E5FF020EDBCF00F007
:1058C000030EDBCF01F0040EDBCF02F0050EDBCFC1
:1058D00003F0060EDBCF04F0070EDBCF05F0080E59
:1058E000DBCF06F0D88003AED89015E306500A0A45
:1058F00012E104C0E9FF05C0EAFF2D0EEF6E044A75
:10590000052A031E021E011E006C05E1012A03E1A7
:10591000022AD8B4032A0650E56E0550E56E0450FD
:10592000E56E0350E56E0250E56E0150E56E0050E5
:10593000E56EABEC22F0070EE126E4CF06F0E4CFF3
:1059400005F0E4CF04F0E4CF03F0E4CF02F0E4CFBD
:1059500001F0E4CF00F0E4CFD9FF1200D9CFE5FF8A
:10596000E1CFD9FF00C0E5FF01C0E5FF02C0E5FFC0
:1059700003C0E5FF04C0E5FF020EDBCF00F0030E1D
:10598000DBCF01F0040EDBCF02F00250E56E0150D8
:10599000E56E0050E56E07EC31F0030EE126005095
:1059A000010F036E000E0120046E000E0220E56E52
:1059B0000450E56E0350E56E07EC31F0030EE1266E
:1059C0000050020F036E000E0120046E000E022034
:1059D000E56E0450E56E0350E56E07EC31F0030E02
:1059E000E1260F0E0026000E012202220250E56E73
:1059F0000150E56E0050E56E14EC2FF0030EE12629
:105A0000E4CF04F0E4CF03F0E4CF02F0E4CF01F000
:105A1000E4CF00F0E4CFD9FF1200D9CFE5FFE1CF0A
:105A2000D9FF00C0E5FF01C0E5FF02C0E5FF03C0EC
:105A3000E5FF04C0E5FF05C0E5FF06C0E5FF020E77
:105A4000DBCF00F0030EDBCF01F0040EDBCF02F062
:105A5000050EDBCF03F0046A056A0350800BE844AF
:105A6000066E065011E10250022603360350015C17
:105A700002E10250005C04E2D8900332023204D00A
:105A8000052A05C004F0E9D70350015C02E1025089
:105A9000005C04E30250005E0350015AD8900332C8
:105AA000023204C005F004060550EEE101C0F3FF28
:105AB0000050E4CF06F0E4CF05F0E4CF04F0E4CFEB
:105AC00003F0E4CF02F0E4CF01F0E4CF00F0E4CF44
:105AD000D9FF120000C0E5FF01C0E5FF03C0E5FFEC
